{
  "_format": "hh-sol-artifact-1",
  "contractName": "CarPooling",
  "sourceName": "contracts/CarPooling.sol",
  "contractAddress": "0x01F5BbF4e66bfaE9C1976750a0B682AAfe8f57A1",
  "abi": [
    {
      "inputs": [
        {
          "internalType": "address",
          "name": "priceFeedAddress",
          "type": "address"
        }
      ],
      "stateMutability": "nonpayable",
      "type": "constructor"
    },
    {
      "inputs": [
        {
          "internalType": "string",
          "name": "message",
          "type": "string"
        }
      ],
      "name": "ERROR_CarPooling",
      "type": "error"
    },
    {
      "anonymous": false,
      "inputs": [
        {
          "indexed": true,
          "internalType": "uint256",
          "name": "rideId",
          "type": "uint256"
        },
        {
          "indexed": false,
          "internalType": "address[]",
          "name": "passengers",
          "type": "address[]"
        }
      ],
      "name": "RideBooked",
      "type": "event"
    },
    {
      "anonymous": false,
      "inputs": [
        {
          "indexed": true,
          "internalType": "uint256",
          "name": "rideId",
          "type": "uint256"
        },
        {
          "indexed": false,
          "internalType": "address",
          "name": "driver",
          "type": "address"
        },
        {
          "indexed": false,
          "internalType": "uint256",
          "name": "maxPassengers",
          "type": "uint256"
        },
        {
          "indexed": false,
          "internalType": "uint256",
          "name": "rideFare",
          "type": "uint256"
        },
        {
          "indexed": false,
          "internalType": "uint256",
          "name": "time",
          "type": "uint256"
        },
        {
          "indexed": false,
          "internalType": "string",
          "name": "tripDetails",
          "type": "string"
        }
      ],
      "name": "RideCreated",
      "type": "event"
    },
    {
      "anonymous": false,
      "inputs": [
        {
          "indexed": true,
          "internalType": "uint256",
          "name": "rideId",
          "type": "uint256"
        },
        {
          "indexed": false,
          "internalType": "uint256",
          "name": "completedStatus",
          "type": "uint256"
        }
      ],
      "name": "StatusUpdate",
      "type": "event"
    },
    {
      "inputs": [
        {
          "internalType": "address",
          "name": "",
          "type": "address"
        },
        {
          "internalType": "uint256",
          "name": "",
          "type": "uint256"
        }
      ],
      "name": "addressToRides",
      "outputs": [
        {
          "internalType": "uint256",
          "name": "",
          "type": "uint256"
        }
      ],
      "stateMutability": "view",
      "type": "function"
    },
    {
      "inputs": [
        {
          "internalType": "uint256",
          "name": "rideId",
          "type": "uint256"
        }
      ],
      "name": "bookRide",
      "outputs": [],
      "stateMutability": "payable",
      "type": "function"
    },
    {
      "inputs": [
        {
          "internalType": "uint256",
          "name": "rideId",
          "type": "uint256"
        }
      ],
      "name": "cancelRide",
      "outputs": [],
      "stateMutability": "nonpayable",
      "type": "function"
    },
    {
      "inputs": [
        {
          "internalType": "uint256",
          "name": "",
          "type": "uint256"
        }
      ],
      "name": "completionStatus",
      "outputs": [
        {
          "internalType": "uint256",
          "name": "",
          "type": "uint256"
        }
      ],
      "stateMutability": "view",
      "type": "function"
    },
    {
      "inputs": [
        {
          "internalType": "uint256",
          "name": "mp",
          "type": "uint256"
        },
        {
          "internalType": "uint256",
          "name": "rf",
          "type": "uint256"
        },
        {
          "internalType": "uint256",
          "name": "t",
          "type": "uint256"
        },
        {
          "internalType": "string",
          "name": "td",
          "type": "string"
        }
      ],
      "name": "createRide",
      "outputs": [],
      "stateMutability": "nonpayable",
      "type": "function"
    },
    {
      "inputs": [],
      "name": "getAllRides",
      "outputs": [
        {
          "internalType": "address[]",
          "name": "",
          "type": "address[]"
        },
        {
          "internalType": "uint256[]",
          "name": "",
          "type": "uint256[]"
        },
        {
          "internalType": "uint256[]",
          "name": "",
          "type": "uint256[]"
        },
        {
          "internalType": "uint256[]",
          "name": "",
          "type": "uint256[]"
        },
        {
          "internalType": "uint256[]",
          "name": "",
          "type": "uint256[]"
        },
        {
          "internalType": "uint256[]",
          "name": "",
          "type": "uint256[]"
        },
        {
          "internalType": "string[]",
          "name": "",
          "type": "string[]"
        }
      ],
      "stateMutability": "view",
      "type": "function"
    },
    {
      "inputs": [
        {
          "internalType": "uint256[]",
          "name": "array",
          "type": "uint256[]"
        },
        {
          "internalType": "uint256",
          "name": "val",
          "type": "uint256"
        }
      ],
      "name": "getIndex",
      "outputs": [
        {
          "internalType": "bool",
          "name": "",
          "type": "bool"
        },
        {
          "internalType": "uint256",
          "name": "",
          "type": "uint256"
        }
      ],
      "stateMutability": "pure",
      "type": "function"
    },
    {
      "inputs": [
        {
          "internalType": "uint256",
          "name": "rideId",
          "type": "uint256"
        }
      ],
      "name": "getRide",
      "outputs": [
        {
          "internalType": "address",
          "name": "",
          "type": "address"
        },
        {
          "internalType": "uint256",
          "name": "",
          "type": "uint256"
        },
        {
          "internalType": "uint256",
          "name": "",
          "type": "uint256"
        },
        {
          "internalType": "uint256",
          "name": "",
          "type": "uint256"
        },
        {
          "internalType": "uint256",
          "name": "",
          "type": "uint256"
        },
        {
          "internalType": "uint256",
          "name": "",
          "type": "uint256"
        },
        {
          "internalType": "string",
          "name": "",
          "type": "string"
        }
      ],
      "stateMutability": "view",
      "type": "function"
    },
    {
      "inputs": [],
      "name": "getUserRides",
      "outputs": [
        {
          "internalType": "address[]",
          "name": "",
          "type": "address[]"
        },
        {
          "internalType": "uint256[]",
          "name": "",
          "type": "uint256[]"
        },
        {
          "internalType": "uint256[]",
          "name": "",
          "type": "uint256[]"
        },
        {
          "internalType": "uint256[]",
          "name": "",
          "type": "uint256[]"
        },
        {
          "internalType": "uint256[]",
          "name": "",
          "type": "uint256[]"
        },
        {
          "internalType": "uint256[]",
          "name": "",
          "type": "uint256[]"
        },
        {
          "internalType": "string[]",
          "name": "",
          "type": "string[]"
        }
      ],
      "stateMutability": "view",
      "type": "function"
    },
    {
      "inputs": [
        {
          "internalType": "uint256",
          "name": "rideId",
          "type": "uint256"
        }
      ],
      "name": "rideCompleted",
      "outputs": [],
      "stateMutability": "nonpayable",
      "type": "function"
    },
    {
      "inputs": [],
      "name": "rideCount",
      "outputs": [
        {
          "internalType": "uint256",
          "name": "",
          "type": "uint256"
        }
      ],
      "stateMutability": "view",
      "type": "function"
    },
    {
      "inputs": [
        {
          "internalType": "uint256",
          "name": "",
          "type": "uint256"
        }
      ],
      "name": "rideKeys",
      "outputs": [
        {
          "internalType": "uint256",
          "name": "",
          "type": "uint256"
        }
      ],
      "stateMutability": "view",
      "type": "function"
    },
    {
      "inputs": [
        {
          "internalType": "uint256",
          "name": "",
          "type": "uint256"
        }
      ],
      "name": "rides",
      "outputs": [
        {
          "internalType": "address",
          "name": "driver",
          "type": "address"
        },
        {
          "internalType": "uint256",
          "name": "maxPassengers",
          "type": "uint256"
        },
        {
          "internalType": "uint256",
          "name": "rideFare",
          "type": "uint256"
        },
        {
          "internalType": "uint256",
          "name": "rideId",
          "type": "uint256"
        },
        {
          "internalType": "uint256",
          "name": "time",
          "type": "uint256"
        },
        {
          "internalType": "string",
          "name": "tripDetails",
          "type": "string"
        }
      ],
      "stateMutability": "view",
      "type": "function"
    },
    {
      "inputs": [],
      "name": "s_priceFeed",
      "outputs": [
        {
          "internalType": "contract AggregatorV3Interface",
          "name": "",
          "type": "address"
        }
      ],
      "stateMutability": "view",
      "type": "function"
    },
    {
      "inputs": [
        {
          "internalType": "uint256",
          "name": "rideId",
          "type": "uint256"
        }
      ],
      "name": "updateStatus",
      "outputs": [],
      "stateMutability": "nonpayable",
      "type": "function"
    }
  ],
  "bytecode": "0x608060405260006004553480156200001657600080fd5b50604051620049333803806200493383398181016040528101906200003c9190620000ed565b806000806101000a81548173ffffffffffffffffffffffffffffffffffffffff021916908373ffffffffffffffffffffffffffffffffffffffff160217905550506200011f565b600080fd5b600073ffffffffffffffffffffffffffffffffffffffff82169050919050565b6000620000b58262000088565b9050919050565b620000c781620000a8565b8114620000d357600080fd5b50565b600081519050620000e781620000bc565b92915050565b60006020828403121562000106576200010562000083565b5b60006200011684828501620000d6565b91505092915050565b614804806200012f6000396000f3fe6080604052600436106100e85760003560e01c8063787660c31161008a578063a6f07b2911610059578063a6f07b2914610346578063b47c18831461036f578063c69b2cf61461039a578063d61e7201146103b6576100e8565b8063787660c31461026b5780637c7b0ff41461029c578063805bceec146102df57806390aeada214610308576100e8565b806319d60f62116100c657806319d60f621461017e5780635205f112146101bb578063595c9609146101fd578063729a70811461023a576100e8565b80630294e77f146100ed5780630ec3b0271461012a5780631193856214610155575b600080fd5b3480156100f957600080fd5b50610114600480360381019061010f919061307b565b6103df565b60405161012191906130b7565b60405180910390f35b34801561013657600080fd5b5061013f610403565b60405161014c9190613151565b60405180910390f35b34801561016157600080fd5b5061017c6004803603810190610177919061307b565b610427565b005b34801561018a57600080fd5b506101a560048036038101906101a0919061307b565b610a18565b6040516101b291906130b7565b60405180910390f35b3480156101c757600080fd5b506101e260048036038101906101dd919061307b565b610a30565b6040516101f49695949392919061321d565b60405180910390f35b34801561020957600080fd5b50610224600480360381019061021f91906132b1565b610b14565b60405161023191906130b7565b60405180910390f35b34801561024657600080fd5b5061024f610b45565b6040516102629796959493929190613579565b60405180910390f35b34801561027757600080fd5b5061028061115b565b6040516102939796959493929190613579565b60405180910390f35b3480156102a857600080fd5b506102c360048036038101906102be919061307b565b611734565b6040516102d69796959493929190613619565b60405180910390f35b3480156102eb57600080fd5b50610306600480360381019061030191906137c4565b61193d565b005b34801561031457600080fd5b5061032f600480360381019061032a919061390f565b611b9c565b60405161033d929190613986565b60405180910390f35b34801561035257600080fd5b5061036d6004803603810190610368919061307b565b611bf8565b005b34801561037b57600080fd5b5061038461279b565b60405161039191906130b7565b60405180910390f35b6103b460048036038101906103af919061307b565b6127a1565b005b3480156103c257600080fd5b506103dd60048036038101906103d8919061307b565b612c1a565b005b600581815481106103ef57600080fd5b906000526020600020016000915090505481565b60008054906101000a900473ffffffffffffffffffffffffffffffffffffffff1681565b6001600082815260200190815260200160002060000160009054906101000a900473ffffffffffffffffffffffffffffffffffffffff1673ffffffffffffffffffffffffffffffffffffffff163373ffffffffffffffffffffffffffffffffffffffff16146104cb576040517f971859530000000000000000000000000000000000000000000000000000000081526004016104c2906139fb565b60405180910390fd5b6001600082815260200190815260200160002060010180549050600360008381526020019081526020016000205414610539576040517f9718595300000000000000000000000000000000000000000000000000000000815260040161053090613a8d565b60405180910390fd5b600060016000838152602001908152602001600020600101805490509050600060016000848152602001908152602001600020600301548261057b9190613adc565b905060003373ffffffffffffffffffffffffffffffffffffffff16826040516105a390613b4f565b60006040518083038185875af1925050503d80600081146105e0576040519150601f19603f3d011682016040523d82523d6000602084013e6105e5565b606091505b5050905080610629576040517f08c379a000000000000000000000000000000000000000000000000000000000815260040161062090613bb0565b60405180910390fd5b600060036000868152602001908152602001600020819055506000600260003373ffffffffffffffffffffffffffffffffffffffff1673ffffffffffffffffffffffffffffffffffffffff1681526020019081526020016000208054806020026020016040519081016040528092919081815260200182805480156106cd57602002820191906000526020600020905b8154815260200190600101908083116106b9575b505050505090506000806106e18388611b9c565b9150915081610725576040517f9718595300000000000000000000000000000000000000000000000000000000815260040161071c90613c42565b60405180910390fd5b82600184516107349190613c62565b8151811061074557610744613c96565b5b6020026020010151600260003373ffffffffffffffffffffffffffffffffffffffff1673ffffffffffffffffffffffffffffffffffffffff168152602001908152602001600020828154811061079e5761079d613c96565b5b9060005260206000200181905550600260003373ffffffffffffffffffffffffffffffffffffffff1673ffffffffffffffffffffffffffffffffffffffff1681526020019081526020016000208054806107fb576107fa613cc5565b5b6001900381819060005260206000200160009055905560016000808152602001908152602001600020600160008981526020019081526020016000206000820160009054906101000a900473ffffffffffffffffffffffffffffffffffffffff168160000160006101000a81548173ffffffffffffffffffffffffffffffffffffffff021916908373ffffffffffffffffffffffffffffffffffffffff16021790555060018201816001019080546108b4929190612f38565b5060028201548160020155600382015481600301556004820154816004015560058201548160050155600682018160060190816108f19190613f0c565b509050506000600580548060200260200160405190810160405280929190818152602001828054801561094357602002820191906000526020600020905b81548152602001906001019080831161092f575b505050505090506109548189611b9c565b80935081945050508261099c576040517f9718595300000000000000000000000000000000000000000000000000000000815260040161099390614040565b60405180910390fd5b80600182516109ab9190613c62565b815181106109bc576109bb613c96565b5b6020026020010151600583815481106109d8576109d7613c96565b5b906000526020600020018190555060058054806109f8576109f7613cc5565b5b600190038181906000526020600020016000905590555050505050505050565b60036020528060005260406000206000915090505481565b60016020528060005260406000206000915090508060000160009054906101000a900473ffffffffffffffffffffffffffffffffffffffff1690806002015490806003015490806004015490806005015490806006018054610a9190613d23565b80601f0160208091040260200160405190810160405280929190818152602001828054610abd90613d23565b8015610b0a5780601f10610adf57610100808354040283529160200191610b0a565b820191906000526020600020905b815481529060010190602001808311610aed57829003601f168201915b5050505050905086565b60026020528160005260406000208181548110610b3057600080fd5b90600052602060002001600091509150505481565b60608060608060608060606000600260003373ffffffffffffffffffffffffffffffffffffffff1673ffffffffffffffffffffffffffffffffffffffff168152602001908152602001600020805480602002602001604051908101604052809291908181526020018280548015610bdb57602002820191906000526020600020905b815481526020019060010190808311610bc7575b505050505090506000815167ffffffffffffffff811115610bff57610bfe613699565b5b604051908082528060200260200182016040528015610c2d5781602001602082028036833780820191505090505b5090506000825167ffffffffffffffff811115610c4d57610c4c613699565b5b604051908082528060200260200182016040528015610c7b5781602001602082028036833780820191505090505b5090506000835167ffffffffffffffff811115610c9b57610c9a613699565b5b604051908082528060200260200182016040528015610cc95781602001602082028036833780820191505090505b5090506000845167ffffffffffffffff811115610ce957610ce8613699565b5b604051908082528060200260200182016040528015610d175781602001602082028036833780820191505090505b5090506000855167ffffffffffffffff811115610d3757610d36613699565b5b604051908082528060200260200182016040528015610d655781602001602082028036833780820191505090505b5090506000865167ffffffffffffffff811115610d8557610d84613699565b5b604051908082528060200260200182016040528015610db35781602001602082028036833780820191505090505b5090506000875167ffffffffffffffff811115610dd357610dd2613699565b5b604051908082528060200260200182016040528015610e0657816020015b6060815260200190600190039081610df15790505b50905060005b8851811015611134576000600160008b8481518110610e2e57610e2d613c96565b5b602002602001015181526020019081526020016000206040518060e00160405290816000820160009054906101000a900473ffffffffffffffffffffffffffffffffffffffff1673ffffffffffffffffffffffffffffffffffffffff1673ffffffffffffffffffffffffffffffffffffffff16815260200160018201805480602002602001604051908101604052809291908181526020018280548015610f2a57602002820191906000526020600020905b8160009054906101000a900473ffffffffffffffffffffffffffffffffffffffff1673ffffffffffffffffffffffffffffffffffffffff1681526020019060010190808311610ee0575b5050505050815260200160028201548152602001600382015481526020016004820154815260200160058201548152602001600682018054610f6b90613d23565b80601f0160208091040260200160405190810160405280929190818152602001828054610f9790613d23565b8015610fe45780601f10610fb957610100808354040283529160200191610fe4565b820191906000526020600020905b815481529060010190602001808311610fc757829003601f168201915b5050505050815250509050600081608001511461112657806000015189838151811061101357611012613c96565b5b602002602001019073ffffffffffffffffffffffffffffffffffffffff16908173ffffffffffffffffffffffffffffffffffffffff168152505080602001515188838151811061106657611065613c96565b5b602002602001018181525050806040015187838151811061108a57611089613c96565b5b60200260200101818152505080606001518683815181106110ae576110ad613c96565b5b60200260200101818152505080608001518583815181106110d2576110d1613c96565b5b6020026020010181815250508060a001518483815181106110f6576110f5613c96565b5b6020026020010181815250508060c0015183838151811061111a57611119613c96565b5b60200260200101819052505b508080600101915050610e0c565b50868686868686869e509e509e509e509e509e509e50505050505050505090919293949596565b6060806060806060806060600060058054806020026020016040519081016040528092919081815260200182805480156111b457602002820191906000526020600020905b8154815260200190600101908083116111a0575b505050505090506000815167ffffffffffffffff8111156111d8576111d7613699565b5b6040519080825280602002602001820160405280156112065781602001602082028036833780820191505090505b5090506000825167ffffffffffffffff81111561122657611225613699565b5b6040519080825280602002602001820160405280156112545781602001602082028036833780820191505090505b5090506000835167ffffffffffffffff81111561127457611273613699565b5b6040519080825280602002602001820160405280156112a25781602001602082028036833780820191505090505b5090506000845167ffffffffffffffff8111156112c2576112c1613699565b5b6040519080825280602002602001820160405280156112f05781602001602082028036833780820191505090505b5090506000855167ffffffffffffffff8111156113105761130f613699565b5b60405190808252806020026020018201604052801561133e5781602001602082028036833780820191505090505b5090506000865167ffffffffffffffff81111561135e5761135d613699565b5b60405190808252806020026020018201604052801561138c5781602001602082028036833780820191505090505b5090506000875167ffffffffffffffff8111156113ac576113ab613699565b5b6040519080825280602002602001820160405280156113df57816020015b60608152602001906001900390816113ca5790505b50905060005b885181101561170d576000600160008b848151811061140757611406613c96565b5b602002602001015181526020019081526020016000206040518060e00160405290816000820160009054906101000a900473ffffffffffffffffffffffffffffffffffffffff1673ffffffffffffffffffffffffffffffffffffffff1673ffffffffffffffffffffffffffffffffffffffff1681526020016001820180548060200260200160405190810160405280929190818152602001828054801561150357602002820191906000526020600020905b8160009054906101000a900473ffffffffffffffffffffffffffffffffffffffff1673ffffffffffffffffffffffffffffffffffffffff16815260200190600101908083116114b9575b505050505081526020016002820154815260200160038201548152602001600482015481526020016005820154815260200160068201805461154490613d23565b80601f016020809104026020016040519081016040528092919081815260200182805461157090613d23565b80156115bd5780601f10611592576101008083540402835291602001916115bd565b820191906000526020600020905b8154815290600101906020018083116115a057829003601f168201915b505050505081525050905060008160800151146116ff5780600001518983815181106115ec576115eb613c96565b5b602002602001019073ffffffffffffffffffffffffffffffffffffffff16908173ffffffffffffffffffffffffffffffffffffffff168152505080602001515188838151811061163f5761163e613c96565b5b602002602001018181525050806040015187838151811061166357611662613c96565b5b602002602001018181525050806060015186838151811061168757611686613c96565b5b60200260200101818152505080608001518583815181106116ab576116aa613c96565b5b6020026020010181815250508060a001518483815181106116cf576116ce613c96565b5b6020026020010181815250508060c001518383815181106116f3576116f2613c96565b5b60200260200101819052505b5080806001019150506113e5565b50868686868686869e509e509e509e509e509e509e50505050505050505090919293949596565b60008060008060008060606000600160008a81526020019081526020016000206040518060e00160405290816000820160009054906101000a900473ffffffffffffffffffffffffffffffffffffffff1673ffffffffffffffffffffffffffffffffffffffff1673ffffffffffffffffffffffffffffffffffffffff1681526020016001820180548060200260200160405190810160405280929190818152602001828054801561183a57602002820191906000526020600020905b8160009054906101000a900473ffffffffffffffffffffffffffffffffffffffff1673ffffffffffffffffffffffffffffffffffffffff16815260200190600101908083116117f0575b505050505081526020016002820154815260200160038201548152602001600482015481526020016005820154815260200160068201805461187b90613d23565b80601f01602080910402602001604051908101604052809291908181526020018280546118a790613d23565b80156118f45780601f106118c9576101008083540402835291602001916118f4565b820191906000526020600020905b8154815290600101906020018083116118d757829003601f168201915b505050505081525050905080600001518160200151518260400151836060015184608001518560a001518660c00151975097509750975097509750975050919395979092949650565b6001600460008282546119509190614060565b92505081905550600060045490506060670de0b6b3a7640000856119749190613adc565b94506119a960008054906101000a900473ffffffffffffffffffffffffffffffffffffffff1686612e6b90919063ffffffff16565b94506040518060e001604052803373ffffffffffffffffffffffffffffffffffffffff168152602001828152602001878152602001868152602001838152602001858152602001848152506001600084815260200190815260200160002060008201518160000160006101000a81548173ffffffffffffffffffffffffffffffffffffffff021916908373ffffffffffffffffffffffffffffffffffffffff1602179055506020820151816001019080519060200190611a6a929190612f8a565b5060408201518160020155606082015181600301556080820151816004015560a0820151816005015560c0820151816006019081611aa89190614094565b50905050600260003373ffffffffffffffffffffffffffffffffffffffff1673ffffffffffffffffffffffffffffffffffffffff168152602001908152602001600020829080600181540180825580915050600190039060005260206000200160009091909190915055600060036000848152602001908152602001600020819055506005829080600181540180825580915050600190039060005260206000200160009091909190915055817f2e74e217349b550494ec1dbbf99d8328644efb46eabd8d078a7cf3bdc7afdf733388888888604051611b8c959493929190614166565b60405180910390a2505050505050565b60008060008060005b8651811015611be85785878281518110611bc257611bc1613c96565b5b602002602001015103611bdb5780925060019150611be8565b8080600101915050611ba5565b5080829350935050509250929050565b6000600160008381526020019081526020016000206040518060e00160405290816000820160009054906101000a900473ffffffffffffffffffffffffffffffffffffffff1673ffffffffffffffffffffffffffffffffffffffff1673ffffffffffffffffffffffffffffffffffffffff16815260200160018201805480602002602001604051908101604052809291908181526020018280548015611cf357602002820191906000526020600020905b8160009054906101000a900473ffffffffffffffffffffffffffffffffffffffff1673ffffffffffffffffffffffffffffffffffffffff1681526020019060010190808311611ca9575b5050505050815260200160028201548152602001600382015481526020016004820154815260200160058201548152602001600682018054611d3490613d23565b80601f0160208091040260200160405190810160405280929190818152602001828054611d6090613d23565b8015611dad5780601f10611d8257610100808354040283529160200191611dad565b820191906000526020600020905b815481529060010190602001808311611d9057829003601f168201915b5050505050815250509050806000015173ffffffffffffffffffffffffffffffffffffffff163373ffffffffffffffffffffffffffffffffffffffff16036122d85760008160200151905060008260600151905060005b8251811015611ee7576000838281518110611e2257611e21613c96565b5b6020026020010151905060008173ffffffffffffffffffffffffffffffffffffffff1684604051611e5290613b4f565b60006040518083038185875af1925050503d8060008114611e8f576040519150601f19603f3d011682016040523d82523d6000602084013e611e94565b606091505b5050905080611ed8576040517f08c379a0000000000000000000000000000000000000000000000000000000008152600401611ecf90613bb0565b60405180910390fd5b50508080600101915050611e04565b506000600260003373ffffffffffffffffffffffffffffffffffffffff1673ffffffffffffffffffffffffffffffffffffffff168152602001908152602001600020805480602002602001604051908101604052809291908181526020018280548015611f7357602002820191906000526020600020905b815481526020019060010190808311611f5f575b50505050509050600080611f878388611b9c565b9150915081611fcb576040517f97185953000000000000000000000000000000000000000000000000000000008152600401611fc290614232565b60405180910390fd5b8260018451611fda9190613c62565b81518110611feb57611fea613c96565b5b6020026020010151600260003373ffffffffffffffffffffffffffffffffffffffff1673ffffffffffffffffffffffffffffffffffffffff168152602001908152602001600020828154811061204457612043613c96565b5b9060005260206000200181905550600260003373ffffffffffffffffffffffffffffffffffffffff1673ffffffffffffffffffffffffffffffffffffffff1681526020019081526020016000208054806120a1576120a0613cc5565b5b6001900381819060005260206000200160009055905560016000808152602001908152602001600020600160008981526020019081526020016000206000820160009054906101000a900473ffffffffffffffffffffffffffffffffffffffff168160000160006101000a81548173ffffffffffffffffffffffffffffffffffffffff021916908373ffffffffffffffffffffffffffffffffffffffff160217905550600182018160010190805461215a929190612f38565b5060028201548160020155600382015481600301556004820154816004015560058201548160050155600682018160060190816121979190613f0c565b50905050600060058054806020026020016040519081016040528092919081815260200182805480156121e957602002820191906000526020600020905b8154815260200190600101908083116121d5575b505050505090506121fa8189611b9c565b809350819450505082612242576040517f9718595300000000000000000000000000000000000000000000000000000000815260040161223990614040565b60405180910390fd5b80600182516122519190613c62565b8151811061226257612261613c96565b5b60200260200101516005838154811061227e5761227d613c96565b5b9060005260206000200181905550600580548061229e5761229d613cc5565b5b600190038181906000526020600020016000905590556000600360008a815260200190815260200160002081905550505050505050612797565b60008033905060008360200151905060005b8151811015612355578273ffffffffffffffffffffffffffffffffffffffff1682828151811061231d5761231c613c96565b5b602002602001015173ffffffffffffffffffffffffffffffffffffffff160361234857809350612355565b80806001019150506122ea565b5080600182516123659190613c62565b8151811061237657612375613c96565b5b60200260200101516001600087815260200190815260200160002060010184815481106123a6576123a5613c96565b5b9060005260206000200160006101000a81548173ffffffffffffffffffffffffffffffffffffffff021916908373ffffffffffffffffffffffffffffffffffffffff1602179055506001600086815260200190815260200160002060010180548061241457612413613cc5565b5b6001900381819060005260206000200160006101000a81549073ffffffffffffffffffffffffffffffffffffffff02191690559055600080600260008573ffffffffffffffffffffffffffffffffffffffff1673ffffffffffffffffffffffffffffffffffffffff1681526020019081526020016000208054806020026020016040519081016040528092919081815260200182805480156124d557602002820191906000526020600020905b8154815260200190600101908083116124c1575b505050505090506124e68188611b9c565b80965081935050508161252e576040517f971859530000000000000000000000000000000000000000000000000000000081526004016125259061429e565b60405180910390fd5b806001825161253d9190613c62565b8151811061254e5761254d613c96565b5b6020026020010151600260003373ffffffffffffffffffffffffffffffffffffffff1673ffffffffffffffffffffffffffffffffffffffff16815260200190815260200160002086815481106125a7576125a6613c96565b5b9060005260206000200181905550600260003373ffffffffffffffffffffffffffffffffffffffff1673ffffffffffffffffffffffffffffffffffffffff16815260200190815260200160002080548061260457612603613cc5565b5b6001900381819060005260206000200160009055905560008660600151905060028161263091906142ed565b905060008573ffffffffffffffffffffffffffffffffffffffff168260405161265890613b4f565b60006040518083038185875af1925050503d8060008114612695576040519150601f19603f3d011682016040523d82523d6000602084013e61269a565b606091505b50509050806126de576040517f08c379a00000000000000000000000000000000000000000000000000000000081526004016126d590613bb0565b60405180910390fd5b6000886000015173ffffffffffffffffffffffffffffffffffffffff168360405161270890613b4f565b60006040518083038185875af1925050503d8060008114612745576040519150601f19603f3d011682016040523d82523d6000602084013e61274a565b606091505b505090508061278e576040517f08c379a000000000000000000000000000000000000000000000000000000000815260040161278590613bb0565b60405180910390fd5b50505050505050505b5050565b60045481565b806000600160008381526020019081526020016000206040518060e00160405290816000820160009054906101000a900473ffffffffffffffffffffffffffffffffffffffff1673ffffffffffffffffffffffffffffffffffffffff1673ffffffffffffffffffffffffffffffffffffffff1681526020016001820180548060200260200160405190810160405280929190818152602001828054801561289d57602002820191906000526020600020905b8160009054906101000a900473ffffffffffffffffffffffffffffffffffffffff1673ffffffffffffffffffffffffffffffffffffffff1681526020019060010190808311612853575b50505050508152602001600282015481526020016003820154815260200160048201548152602001600582015481526020016006820180546128de90613d23565b80601f016020809104026020016040519081016040528092919081815260200182805461290a90613d23565b80156129575780601f1061292c57610100808354040283529160200191612957565b820191906000526020600020905b81548152906001019060200180831161293a57829003601f168201915b5050505050815250509050806000015173ffffffffffffffffffffffffffffffffffffffff163373ffffffffffffffffffffffffffffffffffffffff1614806129a857508060400151816020015151145b156129e8576040517f971859530000000000000000000000000000000000000000000000000000000081526004016129df90614390565b60405180910390fd5b60005b816020015151811015612a915781602001518181518110612a0f57612a0e613c96565b5b602002602001015173ffffffffffffffffffffffffffffffffffffffff163373ffffffffffffffffffffffffffffffffffffffff1603612a84576040517f97185953000000000000000000000000000000000000000000000000000000008152600401612a7b906143fc565b60405180910390fd5b80806001019150506129eb565b506001600084815260200190815260200160002060030154341015612aeb576040517f97185953000000000000000000000000000000000000000000000000000000008152600401612ae29061448e565b60405180910390fd5b60016000848152602001908152602001600020600101339080600181540180825580915050600190039060005260206000200160009091909190916101000a81548173ffffffffffffffffffffffffffffffffffffffff021916908373ffffffffffffffffffffffffffffffffffffffff160217905550600260003373ffffffffffffffffffffffffffffffffffffffff1673ffffffffffffffffffffffffffffffffffffffff168152602001908152602001600020839080600181540180825580915050600190039060005260206000200160009091909190915055827f66cba756a2aa5808ecf7587fdb23b1dfd32f894fda6144ae6c5abc6f4b376af460016000868152602001908152602001600020600101604051612c0d919061459a565b60405180910390a2505050565b60003390506000600260008373ffffffffffffffffffffffffffffffffffffffff1673ffffffffffffffffffffffffffffffffffffffff168152602001908152602001600020805480602002602001604051908101604052809291908181526020018280548015612caa57602002820191906000526020600020905b815481526020019060010190808311612c96575b50505050509050600080612cbe8386611b9c565b9150915081612d02576040517f97185953000000000000000000000000000000000000000000000000000000008152600401612cf99061462e565b60405180910390fd5b6001600360008781526020019081526020016000206000828254612d269190614060565b925050819055508260018451612d3c9190613c62565b81518110612d4d57612d4c613c96565b5b6020026020010151600260008673ffffffffffffffffffffffffffffffffffffffff1673ffffffffffffffffffffffffffffffffffffffff1681526020019081526020016000208281548110612da657612da5613c96565b5b9060005260206000200181905550600260008573ffffffffffffffffffffffffffffffffffffffff1673ffffffffffffffffffffffffffffffffffffffff168152602001908152602001600020805480612e0357612e02613cc5565b5b60019003818190600052602060002001600090559055847fa035aebe46c6ce08497e111ddcb53a08ec8ff20e3ae2ddb7cd2ed4fc7cad4e6c6003600088815260200190815260200160002054604051612e5c91906130b7565b60405180910390a25050505050565b600080612e7783612ea7565b9050600081670de0b6b3a764000086612e909190613adc565b612e9a91906142ed565b9050809250505092915050565b6000808273ffffffffffffffffffffffffffffffffffffffff1663feaf968c6040518163ffffffff1660e01b815260040160a060405180830381865afa158015612ef5573d6000803e3d6000fd5b505050506040513d601f19601f82011682018060405250810190612f1991906146db565b5050509150506402540be40081612f309190614756565b915050919050565b828054828255906000526020600020908101928215612f795760005260206000209182015b82811115612f78578254825591600101919060010190612f5d565b5b509050612f869190613014565b5090565b828054828255906000526020600020908101928215613003579160200282015b828111156130025782518260006101000a81548173ffffffffffffffffffffffffffffffffffffffff021916908373ffffffffffffffffffffffffffffffffffffffff16021790555091602001919060010190612faa565b5b5090506130109190613014565b5090565b5b8082111561302d576000816000905550600101613015565b5090565b6000604051905090565b600080fd5b600080fd5b6000819050919050565b61305881613045565b811461306357600080fd5b50565b6000813590506130758161304f565b92915050565b6000602082840312156130915761309061303b565b5b600061309f84828501613066565b91505092915050565b6130b181613045565b82525050565b60006020820190506130cc60008301846130a8565b92915050565b600073ffffffffffffffffffffffffffffffffffffffff82169050919050565b6000819050919050565b600061311761311261310d846130d2565b6130f2565b6130d2565b9050919050565b6000613129826130fc565b9050919050565b600061313b8261311e565b9050919050565b61314b81613130565b82525050565b60006020820190506131666000830184613142565b92915050565b6000613177826130d2565b9050919050565b6131878161316c565b82525050565b600081519050919050565b600082825260208201905092915050565b60005b838110156131c75780820151818401526020810190506131ac565b60008484015250505050565b6000601f19601f8301169050919050565b60006131ef8261318d565b6131f98185613198565b93506132098185602086016131a9565b613212816131d3565b840191505092915050565b600060c082019050613232600083018961317e565b61323f60208301886130a8565b61324c60408301876130a8565b61325960608301866130a8565b61326660808301856130a8565b81810360a083015261327881846131e4565b9050979650505050505050565b61328e8161316c565b811461329957600080fd5b50565b6000813590506132ab81613285565b92915050565b600080604083850312156132c8576132c761303b565b5b60006132d68582860161329c565b92505060206132e785828601613066565b9150509250929050565b600081519050919050565b600082825260208201905092915050565b6000819050602082019050919050565b6133268161316c565b82525050565b6000613338838361331d565b60208301905092915050565b6000602082019050919050565b600061335c826132f1565b61336681856132fc565b93506133718361330d565b8060005b838110156133a2578151613389888261332c565b975061339483613344565b925050600181019050613375565b5085935050505092915050565b600081519050919050565b600082825260208201905092915050565b6000819050602082019050919050565b6133e481613045565b82525050565b60006133f683836133db565b60208301905092915050565b6000602082019050919050565b600061341a826133af565b61342481856133ba565b935061342f836133cb565b8060005b8381101561346057815161344788826133ea565b975061345283613402565b925050600181019050613433565b5085935050505092915050565b600081519050919050565b600082825260208201905092915050565b6000819050602082019050919050565b600082825260208201905092915050565b60006134b58261318d565b6134bf8185613499565b93506134cf8185602086016131a9565b6134d8816131d3565b840191505092915050565b60006134ef83836134aa565b905092915050565b6000602082019050919050565b600061350f8261346d565b6135198185613478565b93508360208202850161352b85613489565b8060005b85811015613567578484038952815161354885826134e3565b9450613553836134f7565b925060208a0199505060018101905061352f565b50829750879550505050505092915050565b600060e0820190508181036000830152613593818a613351565b905081810360208301526135a7818961340f565b905081810360408301526135bb818861340f565b905081810360608301526135cf818761340f565b905081810360808301526135e3818661340f565b905081810360a08301526135f7818561340f565b905081810360c083015261360b8184613504565b905098975050505050505050565b600060e08201905061362e600083018a61317e565b61363b60208301896130a8565b61364860408301886130a8565b61365560608301876130a8565b61366260808301866130a8565b61366f60a08301856130a8565b81810360c083015261368181846131e4565b905098975050505050505050565b600080fd5b600080fd5b7f4e487b7100000000000000000000000000000000000000000000000000000000600052604160045260246000fd5b6136d1826131d3565b810181811067ffffffffffffffff821117156136f0576136ef613699565b5b80604052505050565b6000613703613031565b905061370f82826136c8565b919050565b600067ffffffffffffffff82111561372f5761372e613699565b5b613738826131d3565b9050602081019050919050565b82818337600083830152505050565b600061376761376284613714565b6136f9565b90508281526020810184848401111561378357613782613694565b5b61378e848285613745565b509392505050565b600082601f8301126137ab576137aa61368f565b5b81356137bb848260208601613754565b91505092915050565b600080600080608085870312156137de576137dd61303b565b5b60006137ec87828801613066565b94505060206137fd87828801613066565b935050604061380e87828801613066565b925050606085013567ffffffffffffffff81111561382f5761382e613040565b5b61383b87828801613796565b91505092959194509250565b600067ffffffffffffffff82111561386257613861613699565b5b602082029050602081019050919050565b600080fd5b600061388b61388684613847565b6136f9565b905080838252602082019050602084028301858111156138ae576138ad613873565b5b835b818110156138d757806138c38882613066565b8452602084019350506020810190506138b0565b5050509392505050565b600082601f8301126138f6576138f561368f565b5b8135613906848260208601613878565b91505092915050565b600080604083850312156139265761392561303b565b5b600083013567ffffffffffffffff81111561394457613943613040565b5b613950858286016138e1565b925050602061396185828601613066565b9150509250929050565b60008115159050919050565b6139808161396b565b82525050565b600060408201905061399b6000830185613977565b6139a860208301846130a8565b9392505050565b7f53656e646572206973206e6f7420746865206472697665720000000000000000600082015250565b60006139e5601883613198565b91506139f0826139af565b602082019050919050565b60006020820190508181036000830152613a14816139d8565b9050919050565b7f4e6f7420616c6c2070617373656e676572732068617665206d61726b6564207460008201527f6865207269646520617320636f6d706c65746564000000000000000000000000602082015250565b6000613a77603483613198565b9150613a8282613a1b565b604082019050919050565b60006020820190508181036000830152613aa681613a6a565b9050919050565b7f4e487b7100000000000000000000000000000000000000000000000000000000600052601160045260246000fd5b6000613ae782613045565b9150613af283613045565b9250828202613b0081613045565b91508282048414831517613b1757613b16613aad565b5b5092915050565b600081905092915050565b50565b6000613b39600083613b1e565b9150613b4482613b29565b600082019050919050565b6000613b5a82613b2c565b9150819050919050565b7f43616c6c206d6574686f64206661696c65640000000000000000000000000000600082015250565b6000613b9a601283613198565b9150613ba582613b64565b602082019050919050565b60006020820190508181036000830152613bc981613b8d565b9050919050565b7f52696465206973206e6f7420726567697374657264207769746820647269766560008201527f7200000000000000000000000000000000000000000000000000000000000000602082015250565b6000613c2c602183613198565b9150613c3782613bd0565b604082019050919050565b60006020820190508181036000830152613c5b81613c1f565b9050919050565b6000613c6d82613045565b9150613c7883613045565b9250828203905081811115613c9057613c8f613aad565b5b92915050565b7f4e487b7100000000000000000000000000000000000000000000000000000000600052603260045260246000fd5b7f4e487b7100000000000000000000000000000000000000000000000000000000600052603160045260246000fd5b7f4e487b7100000000000000000000000000000000000000000000000000000000600052602260045260246000fd5b60006002820490506001821680613d3b57607f821691505b602082108103613d4e57613d4d613cf4565b5b50919050565b600081549050613d6381613d23565b9050919050565b60008190508160005260206000209050919050565b60006020601f8301049050919050565b600082821b905092915050565b600060088302613dcc7fffffffffffffffffffffffffffffffffffffffffffffffffffffffffffffffff82613d8f565b613dd68683613d8f565b95508019841693508086168417925050509392505050565b6000613e09613e04613dff84613045565b6130f2565b613045565b9050919050565b6000819050919050565b613e2383613dee565b613e37613e2f82613e10565b848454613d9c565b825550505050565b600090565b613e4c613e3f565b613e57818484613e1a565b505050565b5b81811015613e7b57613e70600082613e44565b600181019050613e5d565b5050565b601f821115613ec057613e9181613d6a565b613e9a84613d7f565b81016020851015613ea9578190505b613ebd613eb585613d7f565b830182613e5c565b50505b505050565b600082821c905092915050565b6000613ee360001984600802613ec5565b1980831691505092915050565b6000613efc8383613ed2565b9150826002028217905092915050565b818103613f1a575050613ff2565b613f2382613d54565b67ffffffffffffffff811115613f3c57613f3b613699565b5b613f468254613d23565b613f51828285613e7f565b6000601f831160018114613f805760008415613f6e578287015490505b613f788582613ef0565b865550613feb565b601f198416613f8e87613d6a565b9650613f9986613d6a565b60005b82811015613fc157848901548255600182019150600185019450602081019050613f9c565b86831015613fde5784890154613fda601f891682613ed2565b8355505b6001600288020188555050505b5050505050505b565b7f4b657920646f6573206e6f742065786973740000000000000000000000000000600082015250565b600061402a601283613198565b915061403582613ff4565b602082019050919050565b600060208201905081810360008301526140598161401d565b9050919050565b600061406b82613045565b915061407683613045565b925082820190508082111561408e5761408d613aad565b5b92915050565b61409d8261318d565b67ffffffffffffffff8111156140b6576140b5613699565b5b6140c08254613d23565b6140cb828285613e7f565b600060209050601f8311600181146140fe57600084156140ec578287015190505b6140f68582613ef0565b86555061415e565b601f19841661410c86613d6a565b60005b828110156141345784890151825560018201915060208501945060208101905061410f565b86831015614151578489015161414d601f891682613ed2565b8355505b6001600288020188555050505b505050505050565b600060a08201905061417b600083018861317e565b61418860208301876130a8565b61419560408301866130a8565b6141a260608301856130a8565b81810360808301526141b481846131e4565b90509695505050505050565b7f52696465206973206e6f7420726567697374657265642077697468207468652060008201527f7573657200000000000000000000000000000000000000000000000000000000602082015250565b600061421c602483613198565b9150614227826141c0565b604082019050919050565b6000602082019050818103600083015261424b8161420f565b9050919050565b7f52696465206973206e6f74207265676973746572656420776974682075736572600082015250565b6000614288602083613198565b915061429382614252565b602082019050919050565b600060208201905081810360008301526142b78161427b565b9050919050565b7f4e487b7100000000000000000000000000000000000000000000000000000000600052601260045260246000fd5b60006142f882613045565b915061430383613045565b925082614313576143126142be565b5b828204905092915050565b7f4472697665722063616e6e6f7420626f6f6b207468652072696465206f72206d60008201527f6178696d756d2070617373656e67657273207265616368656400000000000000602082015250565b600061437a603983613198565b91506143858261431e565b604082019050919050565b600060208201905081810360008301526143a98161436d565b9050919050565b7f596f75206861766520616c726561647920626f6f6b6564207468652072696465600082015250565b60006143e6602083613198565b91506143f1826143b0565b602082019050919050565b60006020820190508181036000830152614415816143d9565b9050919050565b7f4d6f6e65792073656e74206e6f7420657175616c20746f20726964652046617260008201527f6500000000000000000000000000000000000000000000000000000000000000602082015250565b6000614478602183613198565b91506144838261441c565b604082019050919050565b600060208201905081810360008301526144a78161446b565b9050919050565b600081549050919050565b60008190508160005260206000209050919050565b60008160001c9050919050565b600073ffffffffffffffffffffffffffffffffffffffff82169050919050565b600061450e614509836144ce565b6144db565b9050919050565b600061452182546144fb565b9050919050565b6000600182019050919050565b6000614540826144ae565b61454a81856132fc565b9350614555836144b9565b8060005b8381101561458d5761456a82614515565b614574888261332c565b975061457f83614528565b925050600181019050614559565b5085935050505092915050565b600060208201905081810360008301526145b48184614535565b905092915050565b7f52696465206973206e6f7420726567697374657265642077697468207061737360008201527f656e676572000000000000000000000000000000000000000000000000000000602082015250565b6000614618602583613198565b9150614623826145bc565b604082019050919050565b600060208201905081810360008301526146478161460b565b9050919050565b600069ffffffffffffffffffff82169050919050565b61466d8161464e565b811461467857600080fd5b50565b60008151905061468a81614664565b92915050565b6000819050919050565b6146a381614690565b81146146ae57600080fd5b50565b6000815190506146c08161469a565b92915050565b6000815190506146d58161304f565b92915050565b600080600080600060a086880312156146f7576146f661303b565b5b60006147058882890161467b565b9550506020614716888289016146b1565b9450506040614727888289016146c6565b9350506060614738888289016146c6565b92505060806147498882890161467b565b9150509295509295909350565b600061476182614690565b915061476c83614690565b925082820261477a81614690565b91507f800000000000000000000000000000000000000000000000000000000000000084146000841216156147b2576147b1613aad565b5b82820584148315176147c7576147c6613aad565b5b509291505056fea2646970667358221220a1d1a3e4e63d024cde96217de5c47d0f01c5fe00eea9bee6f769ac8a591dffde64736f6c63430008180033",
  "linkReferences": {},
  "deployedLinkReferences": {}
}